{
  "_format": "hh-sol-artifact-1",
  "contractName": "AddressRegistry",
  "sourceName": "contracts/utils/AddressRegistry.sol",
  "abi": [
    {
      "inputs": [],
      "name": "InvalidId",
      "type": "error"
    },
    {
      "inputs": [],
      "name": "NotFound",
      "type": "error"
    },
    {
      "anonymous": false,
      "inputs": [
        {
          "indexed": true,
          "internalType": "address",
          "name": "addr",
          "type": "address"
        },
        {
          "indexed": true,
          "internalType": "uint256",
          "name": "id",
          "type": "uint256"
        }
      ],
      "name": "AddressId",
      "type": "event"
    },
    {
      "inputs": [
        {
          "internalType": "address",
          "name": "addr",
          "type": "address"
        }
      ],
      "name": "addressId",
      "outputs": [
        {
          "internalType": "uint256",
          "name": "id",
          "type": "uint256"
        }
      ],
      "stateMutability": "nonpayable",
      "type": "function"
    },
    {
      "inputs": [
        {
          "internalType": "uint256",
          "name": "id",
          "type": "uint256"
        }
      ],
      "name": "findAddressById",
      "outputs": [
        {
          "internalType": "address",
          "name": "addr",
          "type": "address"
        }
      ],
      "stateMutability": "view",
      "type": "function"
    },
    {
      "inputs": [
        {
          "internalType": "address",
          "name": "addr",
          "type": "address"
        }
      ],
      "name": "findAddressId",
      "outputs": [
        {
          "internalType": "uint256",
          "name": "id",
          "type": "uint256"
        }
      ],
      "stateMutability": "view",
      "type": "function"
    },
    {
      "inputs": [
        {
          "internalType": "address",
          "name": "addr",
          "type": "address"
        }
      ],
      "name": "getAddressId",
      "outputs": [
        {
          "internalType": "uint256",
          "name": "id",
          "type": "uint256"
        }
      ],
      "stateMutability": "view",
      "type": "function"
    }
  ],
  "bytecode": "0x6080604052348015600f57600080fd5b5061030e8061001f6000396000f3fe608060405234801561001057600080fd5b506004361061004c5760003560e01c8063078002ac1461005157806338a395f814610077578063948f4a2f1461008a578063a0c813181461009c575b600080fd5b61006461005f366004610282565b6100d4565b6040519081526020015b60405180910390f35b610064610085366004610282565b610191565b610064610098366004610282565b5490565b6100af6100aa3660046102bf565b6101c3565b60405173ffffffffffffffffffffffffffffffffffffffff909116815260200161006e565b8054600081900361018c576001740300000000000000000000000000000000000000005401905080740300000000000000000000000000000000000000005580825574010000000000000000000000000000000000000000821781740100000000000000000000000000000000000000000155808273ffffffffffffffffffffffffffffffffffffffff167f16d7a9eadc95dfd3a59af105d9611d87dc8241abb84d9be1cf8dda1feca3db0e60405160405180910390a35b919050565b80548061018c576040517fc5723b51000000000000000000000000000000000000000000000000000000008152600481fd5b60008115806101e657507401000000000000000000000000000000000000000082115b1561021d576040517fdfa1a40800000000000000000000000000000000000000000000000000000000815260040160405180910390fd5b507401000000000000000000000000000000000000000081015480610267576040517fc5723b51000000000000000000000000000000000000000000000000000000008152600481fd5b73ffffffffffffffffffffffffffffffffffffffff16919050565b60006020828403121561029457600080fd5b813573ffffffffffffffffffffffffffffffffffffffff811681146102b857600080fd5b9392505050565b6000602082840312156102d157600080fd5b503591905056fea2646970667358221220f6b007a76af83ae2e3c24cf9ade8f5b140ff460ee35a880ff5f13db97daa334a64736f6c634300081c0033",
  "linkReferences": {},
  "deployedLinkReferences": {}
}